:100000000C9442000C945F000C945F000C945F0011
:100010000C945F000C945F000C945F000C945F00E4
:100020000C945F000C945F000C945F000C945F00D4
:100030000C945F000C945F000C945F000C945F00C4
:100040000C945F000C945F000C945F000C945F00B4
:100050000C945F000C945F000C945F000C945F00A4
:100060000C945F000C945F0036013B014001450198
:100070004A014F0154018301AE01D901E801130285
:10008000C902F40211241FBECFEFD8E0DEBFCDBFFE
:1000900011E0A0E0B1E0E2EEFAE002C005900D92BE
:1000A000AC31B107D9F721E0ACE1B1E001C01D925C
:1000B000A632B207E1F70E9423030C946F050C945B
:1000C00000009DEC899F912D11249695969596950B
:1000D00020E1929FA0011124990F292F220F220FB6
:1000E000920F891B842B0895282F22952F7030E0C2
:1000F000A901440F551F220F331F220F331F220F58
:10010000331F240F351F8F70820F08955A9A95E080
:100110009A95F1F7000098B1907F98B998B1892B22
:1001200088B95A9885E08A95F1F70000089587B15B
:10013000807F87B95C985B9A5A9A85E08A95F1F737
:10014000000086B15A9895E09A95F1F700005A9A06
:1001500095E09A95F1F700005A9895E09A95F1F795
:10016000000083FDE9CF5B9887B18F6087B9089560
:10017000CF93C82F0E9497005C9A8C2F82958F7026
:100180000E9486008C2F8F700E948600CF91089568
:10019000CF93C82F0E9497005C988C2F82958F7008
:1001A0000E9486008C2F8F700E948600CF91089548
:1001B00087B18F6087B9539A529A549A5B985A982C
:1001C0005C982FEF89EF90E0215080409040E1F75C
:1001D00000C0000083E00E94860025ED2A95F1F71B
:1001E000000083E00E94860085ED8A95F1F700000B
:1001F00083E00E94860095ED9A95F1F7000082E079
:100200000E94860025ED2A95F1F700008AE20E94FF
:10021000C8008CE00E94C80086E00E94C80081E00F
:100220000E94C8000895CF93DF93EC018881882352
:1002300031F021960E94B80089918111FBCFDF91A6
:10024000CF910895662321F0806C0E94C800089524
:1002500080680E94C800089590E0FC013197E73063
:10026000F10530F5EC5CFF4F0C94690580E091E0FE
:100270000E941301089584E091E00E941301089503
:1002800088E091E00E94130108958CE091E00E94C3
:100290001301089580E191E00E941301089584E123
:1002A00091E00E941301089588E191E00E941301FA
:1002B0000895CF93C82F82958F70805D0E94B800FB
:1002C0008C2F8F70805D0E94B800CF9108958AB105
:1002D0008F718AB98BB1806E8BB90895CF93DF93FC
:1002E000C82FD62F0E94290580ED0E9436058C2F3D
:1002F00090E0FC013197E730F10508F09FC1E55C23
:10030000FF4F0C94690582E00E943605809121011F
:100310000E94740080932101DD2381F0873140F435
:100320008F5F809321010E9461000E94360586C183
:1003300081E00E9461000E94360580C1823040F059
:100340008150809321010E9461000E94360576C190
:1003500087E10E9461000E94360570C181E00E9421
:100360003605809122010E94740080932201DD23D2
:1003700081F08B3340F48F5F809322010E946100F3
:100380000E9436055BC181E00E9461000E94360533
:1003900055C1823040F08150809322010E9461005B
:1003A0000E9436054BC18BE30E9461000E94360516
:1003B00045C180E00E943605DD2321F080E00E94E7
:1003C00036053CC18EE10E9461000E94360536C1AF
:1003D00083E00E94360580911F010E947400809383
:1003E0001F01DD2381F0873040F48F5F80931F0170
:1003F0000E9461000E94360521C181E00E946100D7
:100400000E9436051BC1823040F0815080931F014D
:100410000E9461000E94360511C187E00E946100C0
:100420000E9436050BC184E00E94360580912501AB
:100430000E94740080932501DD2309F455C090913A
:100440002001923021F590912301937081F48D3138
:1004500040F48F5F809325010E9461000E94360561
:10046000EDC081E00E9461000E943605E7C08C313A
:1004700040F48F5F809325010E9461000E94360541
:10048000DDC081E00E9461000E943605D7C09D7FDB
:1004900021E0943009F020E0211106C021E09930DC
:1004A00009F020E0222381F08E3140F48F5F8093A9
:1004B00025010E9461000E943605C0C081E00E94B3
:1004C00061000E943605BAC08F3140F48F5F80937F
:1004D00025010E9461000E943605B0C081E00E94A3
:1004E00061000E943605AAC090912001923021F54A
:1004F00090912301937081F4823040F08150809379
:1005000025010E9461000E94360598C08DE10E947D
:1005100061000E94360592C0823040F08150809385
:1005200025010E9461000E94360588C08CE10E946E
:1005300061000E94360582C09D7F21E0943009F061
:1005400020E0211106C021E0993009F020E02223AB
:1005500081F0823040F08150809325010E9461003B
:100560000E9436056BC08EE10E9461000E94360534
:1005700065C0823040F08150809325010E94610067
:100580000E9436055BC08FE10E9461000E94360523
:1005900055C085E00E943605809120010E947400BC
:1005A00080932001DD2381F08C3040F48F5F8093B5
:1005B00020010E9461000E94360540C081E00E9437
:1005C00061000E9436053AC0823040F0815080932D
:1005D00020010E9461000E94360530C08CE00E941C
:1005E00061000E9436052AC086E00E94360580918F
:1005F00023010E94740080932301DD2381F0833660
:1006000040F48F5F809323010E9461000E943605B1
:1006100015C081E00E9461000E9436050FC0823043
:1006200040F08150809323010E9461000E943605B2
:1006300005C083E60E9461000E9436050E943205D3
:10064000DF91CF9108950E94D8000E9425050E9455
:100650006701C1E06894FF24F1F803E015E0D7E0FA
:100660002FEF81EE94E0215080409040E1F700C0F0
:10067000000060ED80E00E9441050E94290581EDA7
:100680000E9436050E945305809324010E94530561
:10069000809322010E945305809321010E945305FB
:1006A00080931F010E945305809325010E945305EA
:1006B000809320010E945E05809323010E943205F1
:1006C0004D990AC080911E01811106C0C0931E0180
:1006D00010921C01C0931D0160E084E00E94220181
:1006E00080911E01813029F0809121010E945901E1
:1006F00030C080911C01811109C080E20E94B800C5
:1007000080E20E94B800C0931C0106C080912101C4
:100710000E94590110921C014D9909C080911D0140
:10072000811105C0F0921E01C0931D0106C0809189
:100730001E01813011F410921D014E9904C060E039
:100740008C2F0E946E014F9904C06C2F8C2F0E9439
:100750006E018AE30E94B80080911E01823029F068
:10076000809122010E94590130C080911C018111A9
:1007700009C080E20E94B80080E20E94B800C093E5
:100780001C0106C0809122010E94590110921C0197
:100790004D9909C080911D01811105C000931E0172
:1007A000C0931D0106C080911E01823011F4109289
:1007B0001D014E9904C060E08F2D0E946E014F997B
:1007C00004C06C2F8F2D0E946E018AE30E94B80036
:1007D00080911E01833029F0809124010E945901EB
:1007E00031C080911C01811109C080E20E94B800D3
:1007F00080E20E94B800C0931C0106C080912401D1
:100800000E94590110921C014D990AC080911D014E
:10081000811106C084E080931E01C0931D0106C0B3
:1008200080911E01833011F410921D014E9904C075
:1008300060E0802F0E946E014F9904C06C2F802FC2
:100840000E946E016C2F80E00E94220180911E01A7
:10085000843029F080911F010E942C0133C08091C7
:100860001C0181110CC080E20E94B80080E20E944D
:10087000B80080E20E94B800C0931C0106C08091BD
:100880001F010E942C0110921C014D9909C08091FA
:100890001D01811105C010931E01C0931D0106C0EA
:1008A00080911E01843011F410921D014E9904C0F4
:1008B00060E084E00E946E014F9904C06C2F84E0D8
:1008C0000E946E016C2F86E00E94220180911E0121
:1008D000853029F0809125010E94590131C0809115
:1008E0001C01811109C080E20E94B80080E20E94D0
:1008F000B800C0931C0106C0809125010E945901D7
:1009000010921C014D990AC080911D01811106C0F1
:1009100086E080931E01C0931D0106C080911E01D8
:10092000853011F410921D014E9904C060E0812FB2
:100930000E946E014F9904C06C2F812F0E946E019E
:100940008EE20E94B80080911E01863029F08091CD
:1009500020010E94590130C080911C01811109C001
:1009600080E20E94B80080E20E94B800C0931C019F
:1009700006C0809120010E94590110921C014D99DE
:1009800009C080911D01811105C0D0931E01C09343
:100990001D0106C080911E01863011F410921D01C8
:1009A0004E9904C060E086E00E946E014F9904C039
:1009B0006C2F86E00E946E018EE20E94B80080914A
:1009C0001E01873041F080E20E945901809123018D
:1009D0000E94590145CE80911C0181110FC080E217
:1009E0000E94B80080E20E94B80080E20E94B80035
:1009F00080E20E94B800C0931C0109C080E20E94FE
:100A00005901809123010E94590110921C014D99B6
:100A100009C080911D01811105C010921E01C09373
:100A20001D0106C080911E01873011F410921D0136
:100A30004E9904C060E08D2F0E946E014F9910CE38
:100A40006C2F8D2F0E946E010BCE80E28093B80038
:100A5000089584EA8093BC00ECEBF0E08081882369
:100A6000ECF7089584E98093BC0008958093BB005F
:100A700084E88093BC00ECEBF0E080818823ECF705
:100A80000895CF93DF93C82FD62F0E9429058D2F6D
:100A90000E9436058C2F0E94360584E98093BC00A5
:100AA000DF91CF91089584EC8093BC00ECEBF0E0F3
:100AB00080818823ECF78091BB00089584E88093BF
:100AC000BC00ECEBF0E080818823ECF78091BB0068
:100AD0000895EE0FFF1F0590F491E02D0994F8940E
:020AE000FFCF46
:100AE2004D6F6E005475650057656400546875005B
:0C0AF200467269005361740053756E0079
:00000001FF
